{
  "contractName": "AnimalsNft",
  "abi": [
    {
      "inputs": [],
      "stateMutability": "nonpayable",
      "type": "constructor"
    },
    {
      "anonymous": false,
      "inputs": [
        {
          "indexed": true,
          "internalType": "address",
          "name": "from",
          "type": "address"
        },
        {
          "indexed": true,
          "internalType": "address",
          "name": "to",
          "type": "address"
        },
        {
          "indexed": true,
          "internalType": "uint256",
          "name": "tokenId",
          "type": "uint256"
        }
      ],
      "name": "Transfare",
      "type": "event"
    },
    {
      "anonymous": false,
      "inputs": [
        {
          "indexed": true,
          "internalType": "address",
          "name": "from",
          "type": "address"
        },
        {
          "indexed": true,
          "internalType": "address",
          "name": "to",
          "type": "address"
        },
        {
          "indexed": true,
          "internalType": "uint256",
          "name": "tokenId",
          "type": "uint256"
        }
      ],
      "name": "Transfer",
      "type": "event"
    },
    {
      "inputs": [
        {
          "internalType": "uint256",
          "name": "",
          "type": "uint256"
        }
      ],
      "name": "animalsNft",
      "outputs": [
        {
          "internalType": "string",
          "name": "",
          "type": "string"
        }
      ],
      "stateMutability": "view",
      "type": "function",
      "constant": true
    },
    {
      "inputs": [
        {
          "internalType": "address",
          "name": "_owner",
          "type": "address"
        }
      ],
      "name": "balanceOf",
      "outputs": [
        {
          "internalType": "uint256",
          "name": "",
          "type": "uint256"
        }
      ],
      "stateMutability": "view",
      "type": "function",
      "constant": true
    },
    {
      "inputs": [],
      "name": "name",
      "outputs": [
        {
          "internalType": "string",
          "name": "",
          "type": "string"
        }
      ],
      "stateMutability": "view",
      "type": "function",
      "constant": true
    },
    {
      "inputs": [
        {
          "internalType": "uint256",
          "name": "_tokenId",
          "type": "uint256"
        }
      ],
      "name": "ownerOf",
      "outputs": [
        {
          "internalType": "address",
          "name": "",
          "type": "address"
        }
      ],
      "stateMutability": "view",
      "type": "function",
      "constant": true
    },
    {
      "inputs": [
        {
          "internalType": "bytes4",
          "name": "interfaceID",
          "type": "bytes4"
        }
      ],
      "name": "supportsInterface",
      "outputs": [
        {
          "internalType": "bool",
          "name": "",
          "type": "bool"
        }
      ],
      "stateMutability": "view",
      "type": "function",
      "constant": true
    },
    {
      "inputs": [],
      "name": "symbol",
      "outputs": [
        {
          "internalType": "string",
          "name": "",
          "type": "string"
        }
      ],
      "stateMutability": "view",
      "type": "function",
      "constant": true
    },
    {
      "inputs": [
        {
          "internalType": "uint256",
          "name": "index",
          "type": "uint256"
        }
      ],
      "name": "tokenByIndex",
      "outputs": [
        {
          "internalType": "uint256",
          "name": "",
          "type": "uint256"
        }
      ],
      "stateMutability": "view",
      "type": "function",
      "constant": true
    },
    {
      "inputs": [
        {
          "internalType": "address",
          "name": "owner",
          "type": "address"
        },
        {
          "internalType": "uint256",
          "name": "index",
          "type": "uint256"
        }
      ],
      "name": "tokenOfOwnerByIndex",
      "outputs": [
        {
          "internalType": "uint256",
          "name": "",
          "type": "uint256"
        }
      ],
      "stateMutability": "view",
      "type": "function",
      "constant": true
    },
    {
      "inputs": [],
      "name": "totalSupply",
      "outputs": [
        {
          "internalType": "uint256",
          "name": "",
          "type": "uint256"
        }
      ],
      "stateMutability": "view",
      "type": "function",
      "constant": true
    },
    {
      "inputs": [
        {
          "internalType": "string",
          "name": "_animalUrl",
          "type": "string"
        }
      ],
      "name": "mint",
      "outputs": [],
      "stateMutability": "nonpayable",
      "type": "function"
    }
  ],
  "bytecode": "0x60806040523480156200001157600080fd5b506040518060400160405280600b81526020017f416e696d616c734e4654320000000000000000000000000000000000000000008152506040518060400160405280600481526020017f414e493200000000000000000000000000000000000000000000000000000000815250620000af7f01ffc9a7a5cef8baa21ed3c5c0d7e23accb804b619e9333b597f47a0d84076e26200023560201b60201c565b8060029080519060200190620000c79291906200030d565b508160019080519060200190620000e09291906200030d565b50620001347f13b182f4c0e5b2efbac0efe6cf6d756c8b89f4b79c5707a043ed9ea740574ee97f7feaf19471f34a12a7eaf32d5f3090aa2260ea8624dc8a138e74e0bf0f623076186200023560201b60201c565b5050620001897f3a6eb71757dfc6e784c1459d26270140c2c147d95ca985c80026fc5301c3eca17f8a7e378434598edc36d108689a030cbc9d7d465de4f74c71bae1028eed6a881b186200023560201b60201c565b620001fe7f8230223f691b981717299fae9549350a0d894555723531f02108b1f522c1a7977f6da5e1284143cdd2d15038a59bde3be031250f00291d64494c12d967b3a4e0c37fc53637662700e6c65104059db8bba34439e0c32483ab7c34e3ccae52c739549518186200023560201b60201c565b6200022f7fb05886cd20020b72125e5d74b8ac3eaf5331cc69e21e9118504e2f816ee10f536200023560201b60201c565b620004a5565b63ffffffff60e01b817bffffffffffffffffffffffffffffffffffffffffffffffffffffffff19161415620002a1576040517f08c379a000000000000000000000000000000000000000000000000000000000815260040162000298906200041e565b60405180910390fd5b6001600080837bffffffffffffffffffffffffffffffffffffffffffffffffffffffff19167bffffffffffffffffffffffffffffffffffffffffffffffffffffffff1916815260200190815260200160002060006101000a81548160ff02191690831515021790555050565b8280546200031b906200046f565b90600052602060002090601f0160209004810192826200033f57600085556200038b565b82601f106200035a57805160ff19168380011785556200038b565b828001600101855582156200038b579182015b828111156200038a5782518255916020019190600101906200036d565b5b5090506200039a91906200039e565b5090565b5b80821115620003b95760008160009055506001016200039f565b5090565b600082825260208201905092915050565b7f496e76616c696420496e74657266616365204944000000000000000000000000600082015250565b600062000406601483620003bd565b91506200041382620003ce565b602082019050919050565b600060208201905081810360008301526200043981620003f7565b9050919050565b7f4e487b7100000000000000000000000000000000000000000000000000000000600052602260045260246000fd5b600060028204905060018216806200048857607f821691505b602082108114156200049f576200049e62000440565b5b50919050565b61139680620004b56000396000f3fe608060405234801561001057600080fd5b506004361061009e5760003560e01c80636352211e116100665780636352211e1461016f57806370a082311461019f57806380c35ffe146101cf57806395d89b41146101ff578063d85d3d271461021d5761009e565b806301ffc9a7146100a357806306fdde03146100d357806318160ddd146100f15780632f745c591461010f5780634f6ccce71461013f575b600080fd5b6100bd60048036038101906100b89190610b64565b610239565b6040516100ca9190610bac565b60405180910390f35b6100db6102a0565b6040516100e89190610c60565b60405180910390f35b6100f9610332565b6040516101069190610c9b565b60405180910390f35b61012960048036038101906101249190610d40565b61033f565b6040516101369190610c9b565b60405180910390f35b61015960048036038101906101549190610d80565b6103a5565b6040516101669190610c9b565b60405180910390f35b61018960048036038101906101849190610d80565b610416565b6040516101969190610dbc565b60405180910390f35b6101b960048036038101906101b49190610dd7565b6104c8565b6040516101c69190610c9b565b60405180910390f35b6101e960048036038101906101e49190610d80565b610580565b6040516101f69190610c60565b60405180910390f35b61020761062c565b6040516102149190610c60565b60405180910390f35b61023760048036038101906102329190610f39565b6106be565b005b6000806000837bffffffffffffffffffffffffffffffffffffffffffffffffffffffff19167bffffffffffffffffffffffffffffffffffffffffffffffffffffffff1916815260200190815260200160002060009054906101000a900460ff169050919050565b6060600180546102af90610fb1565b80601f01602080910402602001604051908101604052809291908181526020018280546102db90610fb1565b80156103285780601f106102fd57610100808354040283529160200191610328565b820191906000526020600020905b81548152906001019060200180831161030b57829003601f168201915b5050505050905090565b6000600580549050905090565b6000600660008473ffffffffffffffffffffffffffffffffffffffff1673ffffffffffffffffffffffffffffffffffffffff168152602001908152602001600020828154811061039257610391610fe3565b5b9060005260206000200154905092915050565b60006103af610332565b82106103f0576040517f08c379a00000000000000000000000000000000000000000000000000000000081526004016103e79061105e565b60405180910390fd5b6005828154811061040457610403610fe3565b5b90600052602060002001549050919050565b6000806003600084815260200190815260200160002060009054906101000a900473ffffffffffffffffffffffffffffffffffffffff169050600073ffffffffffffffffffffffffffffffffffffffff168173ffffffffffffffffffffffffffffffffffffffff1614156104bf576040517f08c379a00000000000000000000000000000000000000000000000000000000081526004016104b6906110ca565b60405180910390fd5b80915050919050565b60008073ffffffffffffffffffffffffffffffffffffffff168273ffffffffffffffffffffffffffffffffffffffff161415610539576040517f08c379a0000000000000000000000000000000000000000000000000000000008152600401610530906110ca565b60405180910390fd5b600460008373ffffffffffffffffffffffffffffffffffffffff1673ffffffffffffffffffffffffffffffffffffffff168152602001908152602001600020549050919050565b6009818154811061059057600080fd5b9060005260206000200160009150905080546105ab90610fb1565b80601f01602080910402602001604051908101604052809291908181526020018280546105d790610fb1565b80156106245780601f106105f957610100808354040283529160200191610624565b820191906000526020600020905b81548152906001019060200180831161060757829003601f168201915b505050505081565b60606002805461063b90610fb1565b80601f016020809104026020016040519081016040528092919081815260200182805461066790610fb1565b80156106b45780601f10610689576101008083540402835291602001916106b4565b820191906000526020600020905b81548152906001019060200180831161069757829003601f168201915b5050505050905090565b600a816040516106ce9190611126565b908152602001604051809103902060009054906101000a900460ff161561072a576040517f08c379a0000000000000000000000000000000000000000000000000000000008152600401610721906111af565b60405180910390fd5b600981908060018154018082558091505060019003906000526020600020016000909190919091509080519060200190610765929190610a55565b506000600160098054905061077a91906111fe565b90506001600a8360405161078e9190611126565b908152602001604051809103902060006101000a81548160ff0219169083151502179055506107bd33826107c1565b5050565b6107cb82826107d8565b6107d48161099a565b5050565b600073ffffffffffffffffffffffffffffffffffffffff168273ffffffffffffffffffffffffffffffffffffffff161415610848576040517f08c379a000000000000000000000000000000000000000000000000000000000815260040161083f9061127e565b60405180910390fd5b610851816109e3565b15610891576040517f08c379a0000000000000000000000000000000000000000000000000000000008152600401610888906112ea565b60405180910390fd5b816003600083815260200190815260200160002060006101000a81548173ffffffffffffffffffffffffffffffffffffffff021916908373ffffffffffffffffffffffffffffffffffffffff1602179055506001600460008473ffffffffffffffffffffffffffffffffffffffff1673ffffffffffffffffffffffffffffffffffffffff1681526020019081526020016000206000828254610933919061130a565b92505081905550808273ffffffffffffffffffffffffffffffffffffffff16600073ffffffffffffffffffffffffffffffffffffffff167fddf252ad1be2c89b69c2b068fc378daa952ba7f163c4a11628f55a4df523b3ef60405160405180910390a45050565b6005805490506007600083815260200190815260200160002081905550600581908060018154018082558091505060019003906000526020600020016000909190919091505550565b6000806003600084815260200190815260200160002060009054906101000a900473ffffffffffffffffffffffffffffffffffffffff169050600073ffffffffffffffffffffffffffffffffffffffff168173ffffffffffffffffffffffffffffffffffffffff161415915050919050565b828054610a6190610fb1565b90600052602060002090601f016020900481019282610a835760008555610aca565b82601f10610a9c57805160ff1916838001178555610aca565b82800160010185558215610aca579182015b82811115610ac9578251825591602001919060010190610aae565b5b509050610ad79190610adb565b5090565b5b80821115610af4576000816000905550600101610adc565b5090565b6000604051905090565b600080fd5b600080fd5b60007fffffffff0000000000000000000000000000000000000000000000000000000082169050919050565b610b4181610b0c565b8114610b4c57600080fd5b50565b600081359050610b5e81610b38565b92915050565b600060208284031215610b7a57610b79610b02565b5b6000610b8884828501610b4f565b91505092915050565b60008115159050919050565b610ba681610b91565b82525050565b6000602082019050610bc16000830184610b9d565b92915050565b600081519050919050565b600082825260208201905092915050565b60005b83811015610c01578082015181840152602081019050610be6565b83811115610c10576000848401525b50505050565b6000601f19601f8301169050919050565b6000610c3282610bc7565b610c3c8185610bd2565b9350610c4c818560208601610be3565b610c5581610c16565b840191505092915050565b60006020820190508181036000830152610c7a8184610c27565b905092915050565b6000819050919050565b610c9581610c82565b82525050565b6000602082019050610cb06000830184610c8c565b92915050565b600073ffffffffffffffffffffffffffffffffffffffff82169050919050565b6000610ce182610cb6565b9050919050565b610cf181610cd6565b8114610cfc57600080fd5b50565b600081359050610d0e81610ce8565b92915050565b610d1d81610c82565b8114610d2857600080fd5b50565b600081359050610d3a81610d14565b92915050565b60008060408385031215610d5757610d56610b02565b5b6000610d6585828601610cff565b9250506020610d7685828601610d2b565b9150509250929050565b600060208284031215610d9657610d95610b02565b5b6000610da484828501610d2b565b91505092915050565b610db681610cd6565b82525050565b6000602082019050610dd16000830184610dad565b92915050565b600060208284031215610ded57610dec610b02565b5b6000610dfb84828501610cff565b91505092915050565b600080fd5b600080fd5b7f4e487b7100000000000000000000000000000000000000000000000000000000600052604160045260246000fd5b610e4682610c16565b810181811067ffffffffffffffff82111715610e6557610e64610e0e565b5b80604052505050565b6000610e78610af8565b9050610e848282610e3d565b919050565b600067ffffffffffffffff821115610ea457610ea3610e0e565b5b610ead82610c16565b9050602081019050919050565b82818337600083830152505050565b6000610edc610ed784610e89565b610e6e565b905082815260208101848484011115610ef857610ef7610e09565b5b610f03848285610eba565b509392505050565b600082601f830112610f2057610f1f610e04565b5b8135610f30848260208601610ec9565b91505092915050565b600060208284031215610f4f57610f4e610b02565b5b600082013567ffffffffffffffff811115610f6d57610f6c610b07565b5b610f7984828501610f0b565b91505092915050565b7f4e487b7100000000000000000000000000000000000000000000000000000000600052602260045260246000fd5b60006002820490506001821680610fc957607f821691505b60208210811415610fdd57610fdc610f82565b5b50919050565b7f4e487b7100000000000000000000000000000000000000000000000000000000600052603260045260246000fd5b7f796f757220696e64657820696e7661696c640000000000000000000000000000600082015250565b6000611048601283610bd2565b915061105382611012565b602082019050919050565b600060208201905081810360008301526110778161103b565b9050919050565b7f746869732061646472657373206e6f74206176696c61626c6500000000000000600082015250565b60006110b4601983610bd2565b91506110bf8261107e565b602082019050919050565b600060208201905081810360008301526110e3816110a7565b9050919050565b600081905092915050565b600061110082610bc7565b61110a81856110ea565b935061111a818560208601610be3565b80840191505092915050565b600061113282846110f5565b915081905092915050565b7f74686973204e46542055524c20746f6b656e20416c726561647920457869737460008201527f7300000000000000000000000000000000000000000000000000000000000000602082015250565b6000611199602183610bd2565b91506111a48261113d565b604082019050919050565b600060208201905081810360008301526111c88161118c565b9050919050565b7f4e487b7100000000000000000000000000000000000000000000000000000000600052601160045260246000fd5b600061120982610c82565b915061121483610c82565b925082821015611227576112266111cf565b5b828203905092915050565b7f63616e206e6f74206d696e7420746f2061646472657373207a65726f00000000600082015250565b6000611268601c83610bd2565b915061127382611232565b602082019050919050565b600060208201905081810360008301526112978161125b565b9050919050565b7f746f6b656e20616c7265616479206d696e746564000000000000000000000000600082015250565b60006112d4601483610bd2565b91506112df8261129e565b602082019050919050565b60006020820190508181036000830152611303816112c7565b9050919050565b600061131582610c82565b915061132083610c82565b9250827fffffffffffffffffffffffffffffffffffffffffffffffffffffffffffffffff03821115611355576113546111cf565b5b82820190509291505056fea26469706673582212207b4227c662c6f3440eaa5120e714ff7a56486a844fa665246fa5e4457c97206364736f6c63430008090033",
  "immutableReferences": {},
  "source": "// SPDX-License-Identifier: MIT\npragma solidity >=0.4.22 <0.9.0;\nimport \"./ERC721Metadata.sol\";\nimport \"./ERC721.sol\";\nimport \"./ERC721Enumerable.sol\";\n\ncontract AnimalsNft is ERC721Metadata,ERC721Enumerable{\n    constructor() ERC721Metadata(\"AnimalsNFT2\",\"ANI2\"){\n        _registerInterface(bytes4(keccak256('mint(bytes4)')\n         ));\n\n    }\n    string [] public animalsNft;\n    mapping(string=>bool) _animalUrlExists;\n\n    function mint(string memory _animalUrl) public {\n        require(!_animalUrlExists[_animalUrl],\"this NFT URL token Already Exists\");\n        animalsNft.push(_animalUrl);\n        uint _id = animalsNft.length -1;\n        _animalUrlExists[_animalUrl] = true;\n        _mint(msg.sender, _id);\n\n    }\n\n\n\n\n\n\n\n\n\n\n}\n\n    ",
  "sourcePath": "/home/ali/Downloads/github project/nfts/contracts/AnimalsNft.sol",
  "compiler": {
    "name": "solc",
    "version": "0.8.9+commit.e5eed63a.Emscripten.clang"
  },
  "schemaVersion": "3.4.10",
  "updatedAt": "2022-09-30T09:00:03.155Z",
  "networkType": "ethereum",
  "devdoc": {
    "kind": "dev",
    "methods": {},
    "version": 1
  },
  "userdoc": {
    "kind": "user",
    "methods": {},
    "version": 1
  }
}