{
  "contractName": "ERC721",
  "abi": [
    {
      "inputs": [],
      "stateMutability": "nonpayable",
      "type": "constructor"
    },
    {
      "anonymous": false,
      "inputs": [
        {
          "indexed": true,
          "internalType": "address",
          "name": "from",
          "type": "address"
        },
        {
          "indexed": true,
          "internalType": "address",
          "name": "to",
          "type": "address"
        },
        {
          "indexed": true,
          "internalType": "uint256",
          "name": "tokenId",
          "type": "uint256"
        }
      ],
      "name": "Transfare",
      "type": "event"
    },
    {
      "anonymous": false,
      "inputs": [
        {
          "indexed": true,
          "internalType": "address",
          "name": "from",
          "type": "address"
        },
        {
          "indexed": true,
          "internalType": "address",
          "name": "to",
          "type": "address"
        },
        {
          "indexed": true,
          "internalType": "uint256",
          "name": "tokenId",
          "type": "uint256"
        }
      ],
      "name": "Transfer",
      "type": "event"
    },
    {
      "inputs": [
        {
          "internalType": "bytes4",
          "name": "interfaceID",
          "type": "bytes4"
        }
      ],
      "name": "supportsInterface",
      "outputs": [
        {
          "internalType": "bool",
          "name": "",
          "type": "bool"
        }
      ],
      "stateMutability": "view",
      "type": "function"
    },
    {
      "inputs": [
        {
          "internalType": "address",
          "name": "_owner",
          "type": "address"
        }
      ],
      "name": "balanceOf",
      "outputs": [
        {
          "internalType": "uint256",
          "name": "",
          "type": "uint256"
        }
      ],
      "stateMutability": "view",
      "type": "function"
    },
    {
      "inputs": [
        {
          "internalType": "uint256",
          "name": "_tokenId",
          "type": "uint256"
        }
      ],
      "name": "ownerOf",
      "outputs": [
        {
          "internalType": "address",
          "name": "",
          "type": "address"
        }
      ],
      "stateMutability": "view",
      "type": "function"
    }
  ],
  "bytecode": "0x608060405234801561001057600080fd5b506100407f01ffc9a7a5cef8baa21ed3c5c0d7e23accb804b619e9333b597f47a0d84076e261009660201b60201c565b6100917f3a6eb71757dfc6e784c1459d26270140c2c147d95ca985c80026fc5301c3eca17f8a7e378434598edc36d108689a030cbc9d7d465de4f74c71bae1028eed6a881b1861009660201b60201c565b6101e8565b63ffffffff60e01b817bffffffffffffffffffffffffffffffffffffffffffffffffffffffff191614156100ff576040517f08c379a00000000000000000000000000000000000000000000000000000000081526004016100f6906101c8565b60405180910390fd5b6001600080837bffffffffffffffffffffffffffffffffffffffffffffffffffffffff19167bffffffffffffffffffffffffffffffffffffffffffffffffffffffff1916815260200190815260200160002060006101000a81548160ff02191690831515021790555050565b600082825260208201905092915050565b7f496e76616c696420496e74657266616365204944000000000000000000000000600082015250565b60006101b260148361016b565b91506101bd8261017c565b602082019050919050565b600060208201905081810360008301526101e1816101a5565b9050919050565b61055c806101f76000396000f3fe608060405234801561001057600080fd5b50600436106100415760003560e01c806301ffc9a7146100465780636352211e1461007657806370a08231146100a6575b600080fd5b610060600480360381019061005b9190610304565b6100d6565b60405161006d919061034c565b60405180910390f35b610090600480360381019061008b919061039d565b61013d565b60405161009d919061040b565b60405180910390f35b6100c060048036038101906100bb9190610452565b6101ef565b6040516100cd919061048e565b60405180910390f35b6000806000837bffffffffffffffffffffffffffffffffffffffffffffffffffffffff19167bffffffffffffffffffffffffffffffffffffffffffffffffffffffff1916815260200190815260200160002060009054906101000a900460ff169050919050565b6000806001600084815260200190815260200160002060009054906101000a900473ffffffffffffffffffffffffffffffffffffffff169050600073ffffffffffffffffffffffffffffffffffffffff168173ffffffffffffffffffffffffffffffffffffffff1614156101e6576040517f08c379a00000000000000000000000000000000000000000000000000000000081526004016101dd90610506565b60405180910390fd5b80915050919050565b60008073ffffffffffffffffffffffffffffffffffffffff168273ffffffffffffffffffffffffffffffffffffffff161415610260576040517f08c379a000000000000000000000000000000000000000000000000000000000815260040161025790610506565b60405180910390fd5b600260008373ffffffffffffffffffffffffffffffffffffffff1673ffffffffffffffffffffffffffffffffffffffff168152602001908152602001600020549050919050565b600080fd5b60007fffffffff0000000000000000000000000000000000000000000000000000000082169050919050565b6102e1816102ac565b81146102ec57600080fd5b50565b6000813590506102fe816102d8565b92915050565b60006020828403121561031a576103196102a7565b5b6000610328848285016102ef565b91505092915050565b60008115159050919050565b61034681610331565b82525050565b6000602082019050610361600083018461033d565b92915050565b6000819050919050565b61037a81610367565b811461038557600080fd5b50565b60008135905061039781610371565b92915050565b6000602082840312156103b3576103b26102a7565b5b60006103c184828501610388565b91505092915050565b600073ffffffffffffffffffffffffffffffffffffffff82169050919050565b60006103f5826103ca565b9050919050565b610405816103ea565b82525050565b600060208201905061042060008301846103fc565b92915050565b61042f816103ea565b811461043a57600080fd5b50565b60008135905061044c81610426565b92915050565b600060208284031215610468576104676102a7565b5b60006104768482850161043d565b91505092915050565b61048881610367565b82525050565b60006020820190506104a3600083018461047f565b92915050565b600082825260208201905092915050565b7f746869732061646472657373206e6f74206176696c61626c6500000000000000600082015250565b60006104f06019836104a9565b91506104fb826104ba565b602082019050919050565b6000602082019050818103600083015261051f816104e3565b905091905056fea2646970667358221220696933a750924e04b72a78e4649a62fb29342eeaa19b822e5dfe2d5ad55ccb4d64736f6c63430008090033",
  "immutableReferences": {},
  "source": "// SPDX-License-Identifier: MIT\npragma solidity >=0.4.22 <0.9.0;\nimport \"./interfaces/ERC721Interface.sol\";\nimport \"./ERC165.sol\";\n\ncontract ERC721 is ERC721Interface,ERC165 {\n    mapping(uint256 =>address) private _tokenOwners;\n    mapping(address =>uint256) private _TokenOwnerOwened; //how many this address has token\n\n    constructor(){\n         _registerInterface(bytes4(keccak256('balanceOf(bytes4)')^\n         keccak256('ownerOf(bytes4)')\n         ));\n\n\n    }\n\n    //know how many token user has\n    function balanceOf(address _owner) external view override returns(uint256){\n        require(_owner !=address(0),\"this address not avilable\");\n        return _TokenOwnerOwened[_owner];\n    }\n\n    //who owned token\n    function ownerOf(uint256 _tokenId ) external view override returns(address){\n        address  _owner = _tokenOwners[_tokenId];\n        require(_owner !=address(0),\"this address not avilable\");\n        return _owner;\n    }\n\n\n    event Transfare(address indexed from ,address  indexed to ,uint256 indexed tokenId);\n    function _exists(uint256 tokenId) internal view returns(bool){\n        address owner = _tokenOwners[tokenId];\n        return owner!=address(0);\n    }\n\n    // send the token to the owner\n    function _mint(address to, uint256 tokenId) internal virtual{\n        require(to!=address(0),\"can not mint to address zero\");\n        require(!_exists(tokenId),\"token already minted\");\n        _tokenOwners[tokenId]= to;\n        _TokenOwnerOwened[to] += 1;\n        emit Transfer(address(0),to,tokenId);\n\n\n    }\n\n\n\n\n\n}",
  "sourcePath": "/home/ali/Downloads/github project/nfts/contracts/ERC721.sol",
  "compiler": {
    "name": "solc",
    "version": "0.8.9+commit.e5eed63a.Emscripten.clang"
  },
  "schemaVersion": "3.4.10",
  "updatedAt": "2022-09-30T08:59:04.831Z",
  "devdoc": {
    "kind": "dev",
    "methods": {},
    "version": 1
  },
  "userdoc": {
    "kind": "user",
    "methods": {},
    "version": 1
  }
}