{
  "contractName": "ERC721Enumerable",
  "abi": [
    {
      "inputs": [],
      "stateMutability": "nonpayable",
      "type": "constructor"
    },
    {
      "anonymous": false,
      "inputs": [
        {
          "indexed": true,
          "internalType": "address",
          "name": "from",
          "type": "address"
        },
        {
          "indexed": true,
          "internalType": "address",
          "name": "to",
          "type": "address"
        },
        {
          "indexed": true,
          "internalType": "uint256",
          "name": "tokenId",
          "type": "uint256"
        }
      ],
      "name": "Transfare",
      "type": "event"
    },
    {
      "anonymous": false,
      "inputs": [
        {
          "indexed": true,
          "internalType": "address",
          "name": "from",
          "type": "address"
        },
        {
          "indexed": true,
          "internalType": "address",
          "name": "to",
          "type": "address"
        },
        {
          "indexed": true,
          "internalType": "uint256",
          "name": "tokenId",
          "type": "uint256"
        }
      ],
      "name": "Transfer",
      "type": "event"
    },
    {
      "inputs": [
        {
          "internalType": "address",
          "name": "_owner",
          "type": "address"
        }
      ],
      "name": "balanceOf",
      "outputs": [
        {
          "internalType": "uint256",
          "name": "",
          "type": "uint256"
        }
      ],
      "stateMutability": "view",
      "type": "function"
    },
    {
      "inputs": [
        {
          "internalType": "uint256",
          "name": "_tokenId",
          "type": "uint256"
        }
      ],
      "name": "ownerOf",
      "outputs": [
        {
          "internalType": "address",
          "name": "",
          "type": "address"
        }
      ],
      "stateMutability": "view",
      "type": "function"
    },
    {
      "inputs": [
        {
          "internalType": "bytes4",
          "name": "interfaceID",
          "type": "bytes4"
        }
      ],
      "name": "supportsInterface",
      "outputs": [
        {
          "internalType": "bool",
          "name": "",
          "type": "bool"
        }
      ],
      "stateMutability": "view",
      "type": "function"
    },
    {
      "inputs": [],
      "name": "totalSupply",
      "outputs": [
        {
          "internalType": "uint256",
          "name": "",
          "type": "uint256"
        }
      ],
      "stateMutability": "view",
      "type": "function"
    },
    {
      "inputs": [
        {
          "internalType": "uint256",
          "name": "index",
          "type": "uint256"
        }
      ],
      "name": "tokenByIndex",
      "outputs": [
        {
          "internalType": "uint256",
          "name": "",
          "type": "uint256"
        }
      ],
      "stateMutability": "view",
      "type": "function"
    },
    {
      "inputs": [
        {
          "internalType": "address",
          "name": "owner",
          "type": "address"
        },
        {
          "internalType": "uint256",
          "name": "index",
          "type": "uint256"
        }
      ],
      "name": "tokenOfOwnerByIndex",
      "outputs": [
        {
          "internalType": "uint256",
          "name": "",
          "type": "uint256"
        }
      ],
      "stateMutability": "view",
      "type": "function"
    }
  ],
  "bytecode": "0x608060405234801561001057600080fd5b506100407f01ffc9a7a5cef8baa21ed3c5c0d7e23accb804b619e9333b597f47a0d84076e261010960201b60201c565b6100917f3a6eb71757dfc6e784c1459d26270140c2c147d95ca985c80026fc5301c3eca17f8a7e378434598edc36d108689a030cbc9d7d465de4f74c71bae1028eed6a881b1861010960201b60201c565b6101047f8230223f691b981717299fae9549350a0d894555723531f02108b1f522c1a7977f6da5e1284143cdd2d15038a59bde3be031250f00291d64494c12d967b3a4e0c37fc53637662700e6c65104059db8bba34439e0c32483ab7c34e3ccae52c7395495181861010960201b60201c565b61025b565b63ffffffff60e01b817bffffffffffffffffffffffffffffffffffffffffffffffffffffffff19161415610172576040517f08c379a00000000000000000000000000000000000000000000000000000000081526004016101699061023b565b60405180910390fd5b6001600080837bffffffffffffffffffffffffffffffffffffffffffffffffffffffff19167bffffffffffffffffffffffffffffffffffffffffffffffffffffffff1916815260200190815260200160002060006101000a81548160ff02191690831515021790555050565b600082825260208201905092915050565b7f496e76616c696420496e74657266616365204944000000000000000000000000600082015250565b60006102256014836101de565b9150610230826101ef565b602082019050919050565b6000602082019050818103600083015261025481610218565b9050919050565b6107ba8061026a6000396000f3fe608060405234801561001057600080fd5b50600436106100625760003560e01c806301ffc9a71461006757806318160ddd146100975780632f745c59146100b55780634f6ccce7146100e55780636352211e1461011557806370a0823114610145575b600080fd5b610081600480360381019061007c9190610487565b610175565b60405161008e91906104cf565b60405180910390f35b61009f6101dc565b6040516100ac9190610503565b60405180910390f35b6100cf60048036038101906100ca91906105a8565b6101e9565b6040516100dc9190610503565b60405180910390f35b6100ff60048036038101906100fa91906105e8565b61024f565b60405161010c9190610503565b60405180910390f35b61012f600480360381019061012a91906105e8565b6102c0565b60405161013c9190610624565b60405180910390f35b61015f600480360381019061015a919061063f565b610372565b60405161016c9190610503565b60405180910390f35b6000806000837bffffffffffffffffffffffffffffffffffffffffffffffffffffffff19167bffffffffffffffffffffffffffffffffffffffffffffffffffffffff1916815260200190815260200160002060009054906101000a900460ff169050919050565b6000600380549050905090565b6000600460008473ffffffffffffffffffffffffffffffffffffffff1673ffffffffffffffffffffffffffffffffffffffff168152602001908152602001600020828154811061023c5761023b61066c565b5b9060005260206000200154905092915050565b60006102596101dc565b821061029a576040517f08c379a0000000000000000000000000000000000000000000000000000000008152600401610291906106f8565b60405180910390fd5b600382815481106102ae576102ad61066c565b5b90600052602060002001549050919050565b6000806001600084815260200190815260200160002060009054906101000a900473ffffffffffffffffffffffffffffffffffffffff169050600073ffffffffffffffffffffffffffffffffffffffff168173ffffffffffffffffffffffffffffffffffffffff161415610369576040517f08c379a000000000000000000000000000000000000000000000000000000000815260040161036090610764565b60405180910390fd5b80915050919050565b60008073ffffffffffffffffffffffffffffffffffffffff168273ffffffffffffffffffffffffffffffffffffffff1614156103e3576040517f08c379a00000000000000000000000000000000000000000000000000000000081526004016103da90610764565b60405180910390fd5b600260008373ffffffffffffffffffffffffffffffffffffffff1673ffffffffffffffffffffffffffffffffffffffff168152602001908152602001600020549050919050565b600080fd5b60007fffffffff0000000000000000000000000000000000000000000000000000000082169050919050565b6104648161042f565b811461046f57600080fd5b50565b6000813590506104818161045b565b92915050565b60006020828403121561049d5761049c61042a565b5b60006104ab84828501610472565b91505092915050565b60008115159050919050565b6104c9816104b4565b82525050565b60006020820190506104e460008301846104c0565b92915050565b6000819050919050565b6104fd816104ea565b82525050565b600060208201905061051860008301846104f4565b92915050565b600073ffffffffffffffffffffffffffffffffffffffff82169050919050565b60006105498261051e565b9050919050565b6105598161053e565b811461056457600080fd5b50565b60008135905061057681610550565b92915050565b610585816104ea565b811461059057600080fd5b50565b6000813590506105a28161057c565b92915050565b600080604083850312156105bf576105be61042a565b5b60006105cd85828601610567565b92505060206105de85828601610593565b9150509250929050565b6000602082840312156105fe576105fd61042a565b5b600061060c84828501610593565b91505092915050565b61061e8161053e565b82525050565b60006020820190506106396000830184610615565b92915050565b6000602082840312156106555761065461042a565b5b600061066384828501610567565b91505092915050565b7f4e487b7100000000000000000000000000000000000000000000000000000000600052603260045260246000fd5b600082825260208201905092915050565b7f796f757220696e64657820696e7661696c640000000000000000000000000000600082015250565b60006106e260128361069b565b91506106ed826106ac565b602082019050919050565b60006020820190508181036000830152610711816106d5565b9050919050565b7f746869732061646472657373206e6f74206176696c61626c6500000000000000600082015250565b600061074e60198361069b565b915061075982610718565b602082019050919050565b6000602082019050818103600083015261077d81610741565b905091905056fea2646970667358221220bd36188060dbebd94e6f5416d62cbd9924c9d109146b367347f6c9b774e58ae264736f6c63430008090033",
  "immutableReferences": {},
  "source": "// SPDX-License-Identifier: MIT\npragma solidity >=0.4.22 <0.9.0;\nimport \"./ERC721.sol\";\nimport \"./interfaces/IERC721Enumerable.sol\";\n\n\ncontract ERC721Enumerable is ERC721, IERC721Enumerable{\n    //TODO the other interface function \n            uint256 [] private _allTokens;\n\n            constructor(){\n                _registerInterface(bytes4(keccak256('totalSupply(bytes4)')^\n                keccak256('tokenByIndex(bytes4)')^\n                keccak256('tokenOfOwnerByIndex(bytes4)')\n                \n                ));\n            }\n\n             function totalSupply() public override view returns(uint256) {\n                return _allTokens.length;\n            }\n\n            function tokenByIndex(uint256 index) public override view returns(uint256){\n                require(index < totalSupply(),\"your index invaild\");\n                return _allTokens[index];\n            }\n        \n            function _mint(address to, uint256 tokenId) internal override(ERC721) {\n                super._mint(to,tokenId);\n                _addtokenToAll(tokenId);\n\n            }\n\n\n            \n\n            mapping(address=>uint256[]) private _owenedTokens;\n            mapping(uint256=>uint256) private _allTokensByIndex;\n            mapping(uint256=>uint256) private _owendTokenIndex;\n\n            function _addtokenToAll(uint256 tokenId) private {\n                _allTokensByIndex[tokenId] = _allTokens.length;\n                _allTokens.push(tokenId);\n            }\n            function tokenOfOwnerByIndex(address owner, uint256 index) public override view returns(uint256){\n                return _owenedTokens[owner][index];\n            }\n\n            function _addTokensToTheOwners(address to, uint256 tokenId) private {\n                _owendTokenIndex[tokenId] = _owenedTokens[to].length;\n                _owenedTokens[to].push(tokenId);\n            }\n            \n\n\n\n\n\n\n}           ",
  "sourcePath": "/home/ali/Downloads/github project/nfts/contracts/ERC721Enumerable.sol",
  "compiler": {
    "name": "solc",
    "version": "0.8.9+commit.e5eed63a.Emscripten.clang"
  },
  "schemaVersion": "3.4.10",
  "updatedAt": "2022-09-30T08:59:04.834Z",
  "devdoc": {
    "kind": "dev",
    "methods": {},
    "version": 1
  },
  "userdoc": {
    "kind": "user",
    "methods": {},
    "version": 1
  }
}